{"abi":[{"type":"function","name":"createToken","inputs":[{"name":"_name","type":"string","internalType":"string"},{"name":"_symbol","type":"string","internalType":"string"},{"name":"_initialSupply","type":"uint256","internalType":"uint256"},{"name":"_logoUrl","type":"string","internalType":"string"}],"outputs":[{"name":"","type":"address","internalType":"address"}],"stateMutability":"nonpayable"},{"type":"function","name":"tokens","inputs":[{"name":"","type":"address","internalType":"address"}],"outputs":[{"name":"name","type":"string","internalType":"string"},{"name":"symbol","type":"string","internalType":"string"},{"name":"totalSupply","type":"uint256","internalType":"uint256"},{"name":"logoUrl","type":"string","internalType":"string"}],"stateMutability":"view"},{"type":"event","name":"TokenCreated","inputs":[{"name":"creator","type":"address","indexed":true,"internalType":"address"},{"name":"tokenAddress","type":"address","indexed":false,"internalType":"address"}],"anonymous":false}],"bytecode":{"object":"0x6080604052348015600e575f5ffd5b506113638061001c5f395ff3fe608060405234801561000f575f5ffd5b5060043610610034575f3560e01c8063322caed114610038578063e486033914610068575b5f5ffd5b61004b6100463660046103f2565b61008b565b6040516001600160a01b0390911681526020015b60405180910390f35b61007b61007636600461048a565b61018d565b60405161005f94939291906104e5565b5f5f8585853360405161009d90610346565b6100aa949392919061052e565b604051809103905ff0801580156100c3573d5f5f3e3d5ffd5b50604080516080810182528881526020808201899052818301889052606082018790526001600160a01b0384165f908152908190529190912081519293509091819061010f90826105f8565b506020820151600182019061012490826105f8565b50604082015160028201556060820151600382019061014390826105f8565b50506040516001600160a01b03831681523391507fd5f9bdf12adf29dab0248c349842c3822d53ae2bb4f36352f301630d018c81399060200160405180910390a295945050505050565b5f602081905290815260409020805481906101a790610574565b80601f01602080910402602001604051908101604052809291908181526020018280546101d390610574565b801561021e5780601f106101f55761010080835404028352916020019161021e565b820191905f5260205f20905b81548152906001019060200180831161020157829003601f168201915b50505050509080600101805461023390610574565b80601f016020809104026020016040519081016040528092919081815260200182805461025f90610574565b80156102aa5780601f10610281576101008083540402835291602001916102aa565b820191905f5260205f20905b81548152906001019060200180831161028d57829003601f168201915b5050505050908060020154908060030180546102c590610574565b80601f01602080910402602001604051908101604052809291908181526020018280546102f190610574565b801561033c5780601f106103135761010080835404028352916020019161033c565b820191905f5260205f20905b81548152906001019060200180831161031f57829003601f168201915b5050505050905084565b610c7a806106b483390190565b634e487b7160e01b5f52604160045260245ffd5b5f82601f830112610376575f5ffd5b813567ffffffffffffffff81111561039057610390610353565b604051601f8201601f19908116603f0116810167ffffffffffffffff811182821017156103bf576103bf610353565b6040528181528382016020018510156103d6575f5ffd5b816020850160208301375f918101602001919091529392505050565b5f5f5f5f60808587031215610405575f5ffd5b843567ffffffffffffffff81111561041b575f5ffd5b61042787828801610367565b945050602085013567ffffffffffffffff811115610443575f5ffd5b61044f87828801610367565b93505060408501359150606085013567ffffffffffffffff811115610472575f5ffd5b61047e87828801610367565b91505092959194509250565b5f6020828403121561049a575f5ffd5b81356001600160a01b03811681146104b0575f5ffd5b9392505050565b5f81518084528060208401602086015e5f602082860101526020601f19601f83011685010191505092915050565b608081525f6104f760808301876104b7565b828103602084015261050981876104b7565b9050846040840152828103606084015261052381856104b7565b979650505050505050565b608081525f61054060808301876104b7565b828103602084015261055281876104b7565b604084019590955250506001600160a01b039190911660609091015292915050565b600181811c9082168061058857607f821691505b6020821081036105a657634e487b7160e01b5f52602260045260245ffd5b50919050565b601f8211156105f357805f5260205f20601f840160051c810160208510156105d15750805b601f840160051c820191505b818110156105f0575f81556001016105dd565b50505b505050565b815167ffffffffffffffff81111561061257610612610353565b610626816106208454610574565b846105ac565b6020601f821160018114610658575f83156106415750848201515b5f19600385901b1c1916600184901b1784556105f0565b5f84815260208120601f198516915b828110156106875787850151825560209485019460019092019101610667565b50848210156106a457868401515f19600387901b60f8161c191681555b50505050600190811b0190555056fe608060405234801561000f575f5ffd5b50604051610c7a380380610c7a83398101604081905261002e91610289565b8383600361003c838261039a565b506004610049828261039a565b50505061007b8161005e61008460201b60201c565b61006c9060ff16600a61054d565b610076908561055f565b610089565b50505050610589565b601290565b6001600160a01b0382166100b75760405163ec442f0560e01b81525f60048201526024015b60405180910390fd5b6100c25f83836100c6565b5050565b6001600160a01b0383166100f0578060025f8282546100e59190610576565b909155506101609050565b6001600160a01b0383165f90815260208190526040902054818110156101425760405163391434e360e21b81526001600160a01b038516600482015260248101829052604481018390526064016100ae565b6001600160a01b0384165f9081526020819052604090209082900390555b6001600160a01b03821661017c5760028054829003905561019a565b6001600160a01b0382165f9081526020819052604090208054820190555b816001600160a01b0316836001600160a01b03167fddf252ad1be2c89b69c2b068fc378daa952ba7f163c4a11628f55a4df523b3ef836040516101df91815260200190565b60405180910390a3505050565b634e487b7160e01b5f52604160045260245ffd5b5f82601f83011261020f575f5ffd5b81516001600160401b03811115610228576102286101ec565b604051601f8201601f19908116603f011681016001600160401b0381118282101715610256576102566101ec565b60405281815283820160200185101561026d575f5ffd5b8160208501602083015e5f918101602001919091529392505050565b5f5f5f5f6080858703121561029c575f5ffd5b84516001600160401b038111156102b1575f5ffd5b6102bd87828801610200565b602087015190955090506001600160401b038111156102da575f5ffd5b6102e687828801610200565b60408701516060880151919550935090506001600160a01b038116811461030b575f5ffd5b939692955090935050565b600181811c9082168061032a57607f821691505b60208210810361034857634e487b7160e01b5f52602260045260245ffd5b50919050565b601f82111561039557805f5260205f20601f840160051c810160208510156103735750805b601f840160051c820191505b81811015610392575f815560010161037f565b50505b505050565b81516001600160401b038111156103b3576103b36101ec565b6103c7816103c18454610316565b8461034e565b6020601f8211600181146103f9575f83156103e25750848201515b5f19600385901b1c1916600184901b178455610392565b5f84815260208120601f198516915b828110156104285787850151825560209485019460019092019101610408565b508482101561044557868401515f19600387901b60f8161c191681555b50505050600190811b01905550565b634e487b7160e01b5f52601160045260245ffd5b6001815b60018411156104a35780850481111561048757610487610454565b600184161561049557908102905b60019390931c92800261046c565b935093915050565b5f826104b957506001610547565b816104c557505f610547565b81600181146104db57600281146104e557610501565b6001915050610547565b60ff8411156104f6576104f6610454565b50506001821b610547565b5060208310610133831016604e8410600b8410161715610524575081810a610547565b6105305f198484610468565b805f190482111561054357610543610454565b0290505b92915050565b5f61055883836104ab565b9392505050565b808202811582820484141761054757610547610454565b8082018082111561054757610547610454565b6106e4806105965f395ff3fe608060405234801561000f575f5ffd5b5060043610610090575f3560e01c8063313ce56711610063578063313ce567146100fa57806370a082311461010957806395d89b4114610131578063a9059cbb14610139578063dd62ed3e1461014c575f5ffd5b806306fdde0314610094578063095ea7b3146100b257806318160ddd146100d557806323b872dd146100e7575b5f5ffd5b61009c610184565b6040516100a99190610554565b60405180910390f35b6100c56100c03660046105a4565b610214565b60405190151581526020016100a9565b6002545b6040519081526020016100a9565b6100c56100f53660046105cc565b61022d565b604051601281526020016100a9565b6100d9610117366004610606565b6001600160a01b03165f9081526020819052604090205490565b61009c610250565b6100c56101473660046105a4565b61025f565b6100d961015a366004610626565b6001600160a01b039182165f90815260016020908152604080832093909416825291909152205490565b60606003805461019390610657565b80601f01602080910402602001604051908101604052809291908181526020018280546101bf90610657565b801561020a5780601f106101e15761010080835404028352916020019161020a565b820191905f5260205f20905b8154815290600101906020018083116101ed57829003601f168201915b5050505050905090565b5f3361022181858561026c565b60019150505b92915050565b5f3361023a85828561027e565b6102458585856102ff565b506001949350505050565b60606004805461019390610657565b5f336102218185856102ff565b610279838383600161035c565b505050565b6001600160a01b038381165f908152600160209081526040808320938616835292905220545f198110156102f957818110156102eb57604051637dc7a0d960e11b81526001600160a01b038416600482015260248101829052604481018390526064015b60405180910390fd5b6102f984848484035f61035c565b50505050565b6001600160a01b03831661032857604051634b637e8f60e11b81525f60048201526024016102e2565b6001600160a01b0382166103515760405163ec442f0560e01b81525f60048201526024016102e2565b61027983838361042e565b6001600160a01b0384166103855760405163e602df0560e01b81525f60048201526024016102e2565b6001600160a01b0383166103ae57604051634a1406b160e11b81525f60048201526024016102e2565b6001600160a01b038085165f90815260016020908152604080832093871683529290522082905580156102f957826001600160a01b0316846001600160a01b03167f8c5be1e5ebec7d5bd14f71427d1e84f3dd0314c0f7b2291e5b200ac8c7c3b9258460405161042091815260200190565b60405180910390a350505050565b6001600160a01b038316610458578060025f82825461044d919061068f565b909155506104c89050565b6001600160a01b0383165f90815260208190526040902054818110156104aa5760405163391434e360e21b81526001600160a01b038516600482015260248101829052604481018390526064016102e2565b6001600160a01b0384165f9081526020819052604090209082900390555b6001600160a01b0382166104e457600280548290039055610502565b6001600160a01b0382165f9081526020819052604090208054820190555b816001600160a01b0316836001600160a01b03167fddf252ad1be2c89b69c2b068fc378daa952ba7f163c4a11628f55a4df523b3ef8360405161054791815260200190565b60405180910390a3505050565b602081525f82518060208401528060208501604085015e5f604082850101526040601f19601f83011684010191505092915050565b80356001600160a01b038116811461059f575f5ffd5b919050565b5f5f604083850312156105b5575f5ffd5b6105be83610589565b946020939093013593505050565b5f5f5f606084860312156105de575f5ffd5b6105e784610589565b92506105f560208501610589565b929592945050506040919091013590565b5f60208284031215610616575f5ffd5b61061f82610589565b9392505050565b5f5f60408385031215610637575f5ffd5b61064083610589565b915061064e60208401610589565b90509250929050565b600181811c9082168061066b57607f821691505b60208210810361068957634e487b7160e01b5f52602260045260245ffd5b50919050565b8082018082111561022757634e487b7160e01b5f52601160045260245ffdfea2646970667358221220f3929546caffd5c5fb80c16cc43ffbfc8378f918f6602bdeb2cde82277a9032b64736f6c634300081c0033a26469706673582212201d67cebb568afe038a21c95ba7f2b0f65b46b7fe4f38149bfefdd8b1c8b59da764736f6c634300081c0033","linkReferences":{}},"methodIdentifiers":{"createToken(string,string,uint256,string)":"322caed1","tokens(address)":"e4860339"},"id":27}