{"abi":[{"type":"constructor","inputs":[],"stateMutability":"nonpayable"},{"type":"function","name":"ESTIMATED_APR","inputs":[],"outputs":[{"name":"","type":"uint256","internalType":"uint256"}],"stateMutability":"view"},{"type":"function","name":"STAKE_AMOUNT","inputs":[],"outputs":[{"name":"","type":"uint256","internalType":"uint256"}],"stateMutability":"view"},{"type":"function","name":"getAvailableBalance","inputs":[{"name":"","type":"address","internalType":"address"}],"outputs":[{"name":"","type":"uint256","internalType":"uint256"}],"stateMutability":"pure"},{"type":"function","name":"getEstimatedAPR","inputs":[],"outputs":[{"name":"","type":"uint256","internalType":"uint256"}],"stateMutability":"pure"},{"type":"function","name":"getEstimatedDailyRewards","inputs":[{"name":"_user","type":"address","internalType":"address"}],"outputs":[{"name":"","type":"uint256","internalType":"uint256"}],"stateMutability":"view"},{"type":"function","name":"getStakedAmount","inputs":[{"name":"_user","type":"address","internalType":"address"}],"outputs":[{"name":"","type":"uint256","internalType":"uint256"}],"stateMutability":"view"},{"type":"function","name":"getTotalRewardsClaimed","inputs":[{"name":"_user","type":"address","internalType":"address"}],"outputs":[{"name":"","type":"uint256","internalType":"uint256"}],"stateMutability":"view"},{"type":"function","name":"getTotalStakedAmount","inputs":[],"outputs":[{"name":"","type":"uint256","internalType":"uint256"}],"stateMutability":"view"},{"type":"function","name":"getUnclaimedRewards","inputs":[{"name":"_user","type":"address","internalType":"address"}],"outputs":[{"name":"","type":"uint256","internalType":"uint256"}],"stateMutability":"view"},{"type":"function","name":"owner","inputs":[],"outputs":[{"name":"","type":"address","internalType":"address"}],"stateMutability":"view"},{"type":"function","name":"stake","inputs":[],"outputs":[],"stateMutability":"payable"},{"type":"function","name":"stakers","inputs":[{"name":"","type":"address","internalType":"address"}],"outputs":[{"name":"amountStaked","type":"uint256","internalType":"uint256"},{"name":"totalRewardsClaimed","type":"uint256","internalType":"uint256"},{"name":"unclaimedRewards","type":"uint256","internalType":"uint256"},{"name":"stakingTimestamp","type":"uint256","internalType":"uint256"}],"stateMutability":"view"},{"type":"function","name":"totalStakedAmount","inputs":[],"outputs":[{"name":"","type":"uint256","internalType":"uint256"}],"stateMutability":"view"},{"type":"event","name":"RewardsClaimed","inputs":[{"name":"user","type":"address","indexed":true,"internalType":"address"},{"name":"amount","type":"uint256","indexed":false,"internalType":"uint256"}],"anonymous":false},{"type":"event","name":"Staked","inputs":[{"name":"user","type":"address","indexed":true,"internalType":"address"},{"name":"amount","type":"uint256","indexed":false,"internalType":"uint256"}],"anonymous":false}],"bytecode":{"object":"0x6080604052348015600e575f5ffd5b505f80546001600160a01b031916331790556105068061002d5f395ff3fe6080604052600436106100bf575f3560e01c806369a69e291161007c5780638da5cb5b116100575780638da5cb5b146101fe5780639168ae7214610234578063c508469c14610295578063faf5625f146102aa575f5ffd5b806369a69e29146101705780636c24a76f146101a757806372e71601146101c6575f5ffd5b8063340c8c51146100c357806338adb6f0146100f557806339ea5dd9146101095780633a4b66f11461011d5780634da6a55614610127578063567e98f91461015b575b5f5ffd5b3480156100ce575f5ffd5b506100e26100dd366004610446565b6102c4565b6040519081526020015b60405180910390f35b348015610100575f5ffd5b506002546100e2565b348015610114575f5ffd5b5061074b6100e2565b6101256102fe565b005b348015610132575f5ffd5b506100e2610141366004610446565b6001600160a01b03165f9081526001602052604090205490565b348015610166575f5ffd5b506100e260025481565b34801561017b575f5ffd5b506100e261018a366004610446565b6001600160a01b03165f9081526001602052604090206002015490565b3480156101b2575f5ffd5b506100e26101c1366004610446565b505f90565b3480156101d1575f5ffd5b506100e26101e0366004610446565b6001600160a01b03165f908152600160208190526040909120015490565b348015610209575f5ffd5b505f5461021c906001600160a01b031681565b6040516001600160a01b0390911681526020016100ec565b34801561023f575f5ffd5b5061027561024e366004610446565b600160208190525f9182526040909120805491810154600282015460039092015490919084565b6040805194855260208501939093529183015260608201526080016100ec565b3480156102a0575f5ffd5b506100e261074b81565b3480156102b5575f5ffd5b506100e2660110d9316ec00081565b6001600160a01b0381165f908152600160205260408120546237b1d0906102ee9061074b90610487565b6102f8919061049e565b92915050565b660110d9316ec00034146103595760405162461bcd60e51b815260206004820152601860248201527f496e636f7272656374207374616b696e6720616d6f756e74000000000000000060448201526064015b60405180910390fd5b335f90815260016020526040902054156103a65760405162461bcd60e51b815260206004820152600e60248201526d105b1c9958591e481cdd185ad95960921b6044820152606401610350565b60408051608081018252348082525f602080840182815284860183815242606087019081523385526001938490529684209551865590519185019190915551600280850191909155935160039093019290925582549092919061040a9084906104bd565b909155505060405134815233907f9e71bc8eea02a63969f509818f2dafb9254532904319f9dbda79b67bd34a5f3d9060200160405180910390a2565b5f60208284031215610456575f5ffd5b81356001600160a01b038116811461046c575f5ffd5b9392505050565b634e487b7160e01b5f52601160045260245ffd5b80820281158282048414176102f8576102f8610473565b5f826104b857634e487b7160e01b5f52601260045260245ffd5b500490565b808201808211156102f8576102f861047356fea26469706673582212208f08007a6ec2ad6dbedb8af1c94dcc771e0c93a75475e1aa89493997b99ad55c64736f6c634300081c0033","linkReferences":{}},"methodIdentifiers":{"ESTIMATED_APR()":"c508469c","STAKE_AMOUNT()":"faf5625f","getAvailableBalance(address)":"6c24a76f","getEstimatedAPR()":"39ea5dd9","getEstimatedDailyRewards(address)":"340c8c51","getStakedAmount(address)":"4da6a556","getTotalRewardsClaimed(address)":"72e71601","getTotalStakedAmount()":"38adb6f0","getUnclaimedRewards(address)":"69a69e29","owner()":"8da5cb5b","stake()":"3a4b66f1","stakers(address)":"9168ae72","totalStakedAmount()":"567e98f9"},"id":0}